{
  "_format": "hh-sol-artifact-1",
  "contractName": "TokenFactory",
  "sourceName": "contracts/TokenFactory.sol",
  "abi": [
    {
      "inputs": [],
      "stateMutability": "nonpayable",
      "type": "constructor"
    },
    {
      "inputs": [],
      "name": "INITIAL_PRICE",
      "outputs": [
        {
          "internalType": "uint256",
          "name": "",
          "type": "uint256"
        }
      ],
      "stateMutability": "view",
      "type": "function"
    },
    {
      "inputs": [],
      "name": "M",
      "outputs": [
        {
          "internalType": "uint256",
          "name": "",
          "type": "uint256"
        }
      ],
      "stateMutability": "view",
      "type": "function"
    },
    {
      "inputs": [
        {
          "internalType": "address",
          "name": "",
          "type": "address"
        }
      ],
      "name": "addressToMemeTokenMapping",
      "outputs": [
        {
          "internalType": "string",
          "name": "name",
          "type": "string"
        },
        {
          "internalType": "string",
          "name": "symbol",
          "type": "string"
        },
        {
          "internalType": "string",
          "name": "description",
          "type": "string"
        },
        {
          "internalType": "string",
          "name": "tokenImageUrl",
          "type": "string"
        },
        {
          "internalType": "uint256",
          "name": "fundingRaised",
          "type": "uint256"
        },
        {
          "internalType": "address",
          "name": "tokenAddress",
          "type": "address"
        },
        {
          "internalType": "address",
          "name": "creatorAddress",
          "type": "address"
        }
      ],
      "stateMutability": "view",
      "type": "function"
    },
    {
      "inputs": [
        {
          "internalType": "address",
          "name": "memeTokenAddress",
          "type": "address"
        },
        {
          "internalType": "uint256",
          "name": "tokenQty",
          "type": "uint256"
        }
      ],
      "name": "buyMemeToken",
      "outputs": [
        {
          "internalType": "uint256",
          "name": "",
          "type": "uint256"
        }
      ],
      "stateMutability": "payable",
      "type": "function"
    },
    {
      "inputs": [
        {
          "internalType": "uint256",
          "name": "currentSupply",
          "type": "uint256"
        },
        {
          "internalType": "uint256",
          "name": "tokensToBuy",
          "type": "uint256"
        },
        {
          "internalType": "bool",
          "name": "isBuy",
          "type": "bool"
        }
      ],
      "name": "calculateCost",
      "outputs": [
        {
          "internalType": "uint256",
          "name": "",
          "type": "uint256"
        },
        {
          "internalType": "uint256",
          "name": "",
          "type": "uint256"
        }
      ],
      "stateMutability": "pure",
      "type": "function"
    },
    {
      "inputs": [
        {
          "internalType": "string",
          "name": "name",
          "type": "string"
        },
        {
          "internalType": "string",
          "name": "symbol",
          "type": "string"
        },
        {
          "internalType": "string",
          "name": "imageUrl",
          "type": "string"
        },
        {
          "internalType": "string",
          "name": "description",
          "type": "string"
        }
      ],
      "name": "createMemeToken",
      "outputs": [
        {
          "internalType": "address",
          "name": "",
          "type": "address"
        }
      ],
      "stateMutability": "payable",
      "type": "function"
    },
    {
      "inputs": [],
      "name": "getAllMemeTokens",
      "outputs": [
        {
          "components": [
            {
              "internalType": "string",
              "name": "name",
              "type": "string"
            },
            {
              "internalType": "string",
              "name": "symbol",
              "type": "string"
            },
            {
              "internalType": "string",
              "name": "description",
              "type": "string"
            },
            {
              "internalType": "string",
              "name": "tokenImageUrl",
              "type": "string"
            },
            {
              "internalType": "uint256",
              "name": "fundingRaised",
              "type": "uint256"
            },
            {
              "internalType": "address",
              "name": "tokenAddress",
              "type": "address"
            },
            {
              "internalType": "address",
              "name": "creatorAddress",
              "type": "address"
            }
          ],
          "internalType": "struct TokenFactory.memeToken[]",
          "name": "",
          "type": "tuple[]"
        }
      ],
      "stateMutability": "view",
      "type": "function"
    },
    {
      "inputs": [
        {
          "internalType": "uint256",
          "name": "",
          "type": "uint256"
        }
      ],
      "name": "memeTokenAddresses",
      "outputs": [
        {
          "internalType": "address",
          "name": "",
          "type": "address"
        }
      ],
      "stateMutability": "view",
      "type": "function"
    },
    {
      "inputs": [
        {
          "internalType": "address",
          "name": "memeTokenAddress",
          "type": "address"
        },
        {
          "internalType": "uint256",
          "name": "tokenQty",
          "type": "uint256"
        }
      ],
      "name": "sellMemeToken",
      "outputs": [
        {
          "internalType": "uint256",
          "name": "",
          "type": "uint256"
        }
      ],
      "stateMutability": "nonpayable",
      "type": "function"
    },
    {
      "inputs": [],
      "name": "withdrawFee",
      "outputs": [],
      "stateMutability": "nonpayable",
      "type": "function"
    }
  ],
  "bytecode": "0x60806040526000600255348015601457600080fd5b5033600160006101000a81548173ffffffffffffffffffffffffffffffffffffffff021916908373ffffffffffffffffffffffffffffffffffffffff160217905550615532806100656000396000f3fe6080604052600436106100915760003560e01c80637c5e2795116100595780637c5e2795146101af578063bcfeed9a146101da578063dd5988cd14610205578063e823bfd514610242578063e941fa781461027257610091565b8063075bb17d14610096578063130da960146100c657806313cb5ad61461010957806351a037d114610146578063693f917e14610184575b600080fd5b6100b060048036038101906100ab91906125d5565b610289565b6040516100bd91906126ed565b60405180910390f35b3480156100d257600080fd5b506100ed60048036038101906100e89190612734565b610566565b60405161010097969594939291906127f9565b60405180910390f35b34801561011557600080fd5b50610130600480360381019061012b91906128b0565b610808565b60405161013d91906126ed565b60405180910390f35b34801561015257600080fd5b5061016d60048036038101906101689190612915565b610847565b60405161017b929190612968565b60405180910390f35b34801561019057600080fd5b5061019961099b565b6040516101a69190612991565b60405180910390f35b3480156101bb57600080fd5b506101c46109a4565b6040516101d19190612991565b60405180910390f35b3480156101e657600080fd5b506101ef6109af565b6040516101fc9190612b87565b60405180910390f35b34801561021157600080fd5b5061022c60048036038101906102279190612ba9565b610dd5565b6040516102399190612991565b60405180910390f35b61025c60048036038101906102579190612ba9565b611539565b6040516102699190612991565b60405180910390f35b34801561027e57600080fd5b50610287611d20565b005b60006706f05b59d3b200003410156102d6576040517f08c379a00000000000000000000000000000000000000000000000000000000081526004016102cd90612c5b565b60405180910390fd5b34600260008282546102e89190612caa565b92505081905550600085856064670de0b6b3a7640000620f424061030c9190612cde565b60146103189190612cde565b6103229190612d4f565b60405161032e906123fb565b61033a93929190612d80565b604051809103906000f080158015610356573d6000803e3d6000fd5b509050600081905060006040518060e00160405280898152602001888152602001868152602001878152602001600081526020018373ffffffffffffffffffffffffffffffffffffffff1681526020013373ffffffffffffffffffffffffffffffffffffffff1681525090506000829080600181540180825580915050600190039060005260206000200160009091909190916101000a81548173ffffffffffffffffffffffffffffffffffffffff021916908373ffffffffffffffffffffffffffffffffffffffff16021790555080600360008473ffffffffffffffffffffffffffffffffffffffff1673ffffffffffffffffffffffffffffffffffffffff168152602001908152602001600020600082015181600001908161047a9190612fd1565b5060208201518160010190816104909190612fd1565b5060408201518160020190816104a69190612fd1565b5060608201518160030190816104bc9190612fd1565b506080820151816004015560a08201518160050160006101000a81548173ffffffffffffffffffffffffffffffffffffffff021916908373ffffffffffffffffffffffffffffffffffffffff16021790555060c08201518160060160006101000a81548173ffffffffffffffffffffffffffffffffffffffff021916908373ffffffffffffffffffffffffffffffffffffffff160217905550905050819350505050949350505050565b600360205280600052604060002060009150905080600001805461058990612df4565b80601f01602080910402602001604051908101604052809291908181526020018280546105b590612df4565b80156106025780601f106105d757610100808354040283529160200191610602565b820191906000526020600020905b8154815290600101906020018083116105e557829003601f168201915b50505050509080600101805461061790612df4565b80601f016020809104026020016040519081016040528092919081815260200182805461064390612df4565b80156106905780601f1061066557610100808354040283529160200191610690565b820191906000526020600020905b81548152906001019060200180831161067357829003601f168201915b5050505050908060020180546106a590612df4565b80601f01602080910402602001604051908101604052809291908181526020018280546106d190612df4565b801561071e5780601f106106f35761010080835404028352916020019161071e565b820191906000526020600020905b81548152906001019060200180831161070157829003601f168201915b50505050509080600301805461073390612df4565b80601f016020809104026020016040519081016040528092919081815260200182805461075f90612df4565b80156107ac5780601f10610781576101008083540402835291602001916107ac565b820191906000526020600020905b81548152906001019060200180831161078f57829003601f168201915b5050505050908060040154908060050160009054906101000a900473ffffffffffffffffffffffffffffffffffffffff16908060060160009054906101000a900473ffffffffffffffffffffffffffffffffffffffff16905087565b6000818154811061081857600080fd5b906000526020600020016000915054906101000a900473ffffffffffffffffffffffffffffffffffffffff1681565b600080600084660aa87bee53800061085f9190612cde565b6002868761086d9190612cde565b643fbcc5818061087d9190612cde565b6108879190612d4f565b8688643fbcc581806108999190612cde565b6108a39190612cde565b6108ad9190612caa565b6108b79190612caa565b90506000841561092f576103e86005836108d19190612cde565b6108db9190612d4f565b905061091c6040518060400160405280601881526020017f5472616e73616374696f6e20666565206973286275792920000000000000000081525082611e94565b80826109289190612caa565b915061098b565b6103e860058361093f9190612cde565b6109499190612d4f565b905061098a6040518060400160405280601981526020017f5472616e73616374696f6e206665652069732873616c6529200000000000000081525082611e94565b5b8181935093505050935093915050565b643fbcc5818081565b660aa87bee53800081565b60606000808054905067ffffffffffffffff8111156109d1576109d06124aa565b5b604051908082528060200260200182016040528015610a0a57816020015b6109f7612408565b8152602001906001900390816109ef5790505b50905060005b600080549050811015610dcd5760036000808381548110610a3457610a336130a3565b5b9060005260206000200160009054906101000a900473ffffffffffffffffffffffffffffffffffffffff1673ffffffffffffffffffffffffffffffffffffffff1673ffffffffffffffffffffffffffffffffffffffff1681526020019081526020016000206040518060e0016040529081600082018054610ab490612df4565b80601f0160208091040260200160405190810160405280929190818152602001828054610ae090612df4565b8015610b2d5780601f10610b0257610100808354040283529160200191610b2d565b820191906000526020600020905b815481529060010190602001808311610b1057829003601f168201915b50505050508152602001600182018054610b4690612df4565b80601f0160208091040260200160405190810160405280929190818152602001828054610b7290612df4565b8015610bbf5780601f10610b9457610100808354040283529160200191610bbf565b820191906000526020600020905b815481529060010190602001808311610ba257829003601f168201915b50505050508152602001600282018054610bd890612df4565b80601f0160208091040260200160405190810160405280929190818152602001828054610c0490612df4565b8015610c515780601f10610c2657610100808354040283529160200191610c51565b820191906000526020600020905b815481529060010190602001808311610c3457829003601f168201915b50505050508152602001600382018054610c6a90612df4565b80601f0160208091040260200160405190810160405280929190818152602001828054610c9690612df4565b8015610ce35780601f10610cb857610100808354040283529160200191610ce3565b820191906000526020600020905b815481529060010190602001808311610cc657829003601f168201915b50505050508152602001600482015481526020016005820160009054906101000a900473ffffffffffffffffffffffffffffffffffffffff1673ffffffffffffffffffffffffffffffffffffffff1673ffffffffffffffffffffffffffffffffffffffff1681526020016006820160009054906101000a900473ffffffffffffffffffffffffffffffffffffffff1673ffffffffffffffffffffffffffffffffffffffff1673ffffffffffffffffffffffffffffffffffffffff1681525050828281518110610db557610db46130a3565b5b60200260200101819052508080600101915050610a10565b508091505090565b60008073ffffffffffffffffffffffffffffffffffffffff16600360008573ffffffffffffffffffffffffffffffffffffffff1673ffffffffffffffffffffffffffffffffffffffff16815260200190815260200160002060050160009054906101000a900473ffffffffffffffffffffffffffffffffffffffff1673ffffffffffffffffffffffffffffffffffffffff1603610ea7576040517f08c379a0000000000000000000000000000000000000000000000000000000008152600401610e9e9061311e565b60405180910390fd5b600083905060008311610eef576040517f08c379a0000000000000000000000000000000000000000000000000000000008152600401610ee69061318a565b60405180910390fd5b69130ee8e7179044400000600360008673ffffffffffffffffffffffffffffffffffffffff1673ffffffffffffffffffffffffffffffffffffffff1681526020019081526020016000206004015410610f7d576040517f08c379a0000000000000000000000000000000000000000000000000000000008152600401610f74906131f6565b60405180910390fd5b6000670de0b6b3a764000084610f939190612cde565b9050808273ffffffffffffffffffffffffffffffffffffffff166370a08231336040518263ffffffff1660e01b8152600401610fcf91906126ed565b602060405180830381865afa158015610fec573d6000803e3d6000fd5b505050506040513d601f19601f82011682018060405250810190611010919061322b565b1015611051576040517f08c379a0000000000000000000000000000000000000000000000000000000008152600401611048906132a4565b60405180910390fd5b600080611125670de0b6b3a7640000846064670de0b6b3a7640000620f424061107a9190612cde565b60146110869190612cde565b6110909190612d4f565b8773ffffffffffffffffffffffffffffffffffffffff166318160ddd6040518163ffffffff1660e01b8152600401602060405180830381865afa1580156110db573d6000803e3d6000fd5b505050506040513d601f19601f820116820180604052508101906110ff919061322b565b61110991906132c4565b61111391906132c4565b61111d9190612d4f565b876000610847565b9150915061114b6040518060600160405280602281526020016154db6022913983611e94565b806002600082825461115d9190612caa565b925050819055506000818361117291906132c4565b905082600360008a73ffffffffffffffffffffffffffffffffffffffff1673ffffffffffffffffffffffffffffffffffffffff16815260200190815260200160002060040160008282546111c691906132c4565b925050819055508473ffffffffffffffffffffffffffffffffffffffff16639dc29fac33866040518363ffffffff1660e01b81526004016112089291906132f8565b6020604051808303816000875af1158015611227573d6000803e3d6000fd5b505050506040513d601f19601f8201168201806040525081019061124b919061322b565b5060003373ffffffffffffffffffffffffffffffffffffffff168260405161127290613352565b60006040518083038185875af1925050503d80600081146112af576040519150601f19603f3d011682016040523d82523d6000602084013e6112b4565b606091505b5050905080611300576112fb6040518060400160405280601381526020017f455448207472616e73666572206661696c656400000000000000000000000000815250611f30565b61133f565b61133e6040518060400160405280601681526020017f455448207472616e736665722073756363657373656400000000000000000000815250611f30565b5b6113da6040518060600160405280602981526020016154b2602991398773ffffffffffffffffffffffffffffffffffffffff166370a08231336040518263ffffffff1660e01b815260040161139491906126ed565b602060405180830381865afa1580156113b1573d6000803e3d6000fd5b505050506040513d601f19601f820116820180604052508101906113d5919061322b565b611e94565b6114a86040518060400160405280601d81526020017f4e657720617661696c61626c65207174792873616c65416674657229200000008152508773ffffffffffffffffffffffffffffffffffffffff166318160ddd6040518163ffffffff1660e01b8152600401602060405180830381865afa15801561145e573d6000803e3d6000fd5b505050506040513d601f19601f82011682018060405250810190611482919061322b565b670de0b6b3a7640000620f42406114999190612cde565b6114a391906132c4565b611e94565b6115296040518060400160405280601e81526020017f63757272656e742066756e64696e672069732873616c65416674657229200000815250600360008c73ffffffffffffffffffffffffffffffffffffffff1673ffffffffffffffffffffffffffffffffffffffff16815260200190815260200160002060040154611e94565b6001965050505050505092915050565b60008073ffffffffffffffffffffffffffffffffffffffff16600360008573ffffffffffffffffffffffffffffffffffffffff1673ffffffffffffffffffffffffffffffffffffffff16815260200190815260200160002060050160009054906101000a900473ffffffffffffffffffffffffffffffffffffffff1673ffffffffffffffffffffffffffffffffffffffff160361160b576040517f08c379a00000000000000000000000000000000000000000000000000000000081526004016116029061311e565b60405180910390fd5b600083905060008311611653576040517f08c379a000000000000000000000000000000000000000000000000000000000815260040161164a906133d9565b60405180910390fd5b69130ee8e7179044400000600360008673ffffffffffffffffffffffffffffffffffffffff1673ffffffffffffffffffffffffffffffffffffffff16815260200190815260200160002060040154106116e1576040517f08c379a00000000000000000000000000000000000000000000000000000000081526004016116d8906131f6565b60405180910390fd5b60008173ffffffffffffffffffffffffffffffffffffffff166318160ddd6040518163ffffffff1660e01b8152600401602060405180830381865afa15801561172e573d6000803e3d6000fd5b505050506040513d601f19601f82011682018060405250810190611752919061322b565b90506117766040518060600160405280602681526020016154396026913982611e94565b6117ae6040518060600160405280602281526020016153f160229139670de0b6b3a7640000620f42406117a99190612cde565b611e94565b600081670de0b6b3a7640000620f42406117c89190612cde565b6117d291906132c4565b90506117f66040518060600160405280602681526020016154136026913982611e94565b6000670de0b6b3a76400008261180c9190612d4f565b90506000670de0b6b3a7640000876118249190612cde565b905081871115611869576040517f08c379a000000000000000000000000000000000000000000000000000000000815260040161186090613445565b60405180910390fd5b6000670de0b6b3a76400006064670de0b6b3a7640000620f424061188d9190612cde565b60146118999190612cde565b6118a39190612d4f565b866118ae91906132c4565b6118b89190612d4f565b90506000806118c9838b6001610847565b9150915080600260008282546118df9190612caa565b925050819055506119086040518060600160405280602b815260200161545f602b913983611e94565b8134101561194b576040517f08c379a0000000000000000000000000000000000000000000000000000000008152600401611942906134b1565b60405180910390fd5b803461195791906132c4565b600360008d73ffffffffffffffffffffffffffffffffffffffff1673ffffffffffffffffffffffffffffffffffffffff16815260200190815260200160002060040160008282546119a89190612caa565b9250508190555069130ee8e7179044400000600360008d73ffffffffffffffffffffffffffffffffffffffff1673ffffffffffffffffffffffffffffffffffffffff1681526020019081526020016000206004015410611b26576000611a0d8c611fc9565b9050611a4e6040518060400160405280600d81526020017f506f6f6c20616464726573732000000000000000000000000000000000000000815250826120f7565b60006064670de0b6b3a7640000620f4240611a699190612cde565b6014611a759190612cde565b611a7f9190612d4f565b90506000600360008f73ffffffffffffffffffffffffffffffffffffffff1673ffffffffffffffffffffffffffffffffffffffff1681526020019081526020016000206004015490506000611ad58f8484612193565b9050611b166040518060400160405280601a81526020017f556e69737761702070726f7669646564206c697175696474792000000000000081525082611e94565b611b2084826122e6565b50505050505b8773ffffffffffffffffffffffffffffffffffffffff166394bf804d85336040518363ffffffff1660e01b8152600401611b619291906134d1565b6020604051808303816000875af1158015611b80573d6000803e3d6000fd5b505050506040513d601f19601f82011682018060405250810190611ba4919061322b565b50611c4060405180606001604052806028815260200161548a602891398973ffffffffffffffffffffffffffffffffffffffff166370a08231336040518263ffffffff1660e01b8152600401611bfa91906126ed565b602060405180830381865afa158015611c17573d6000803e3d6000fd5b505050506040513d601f19601f82011682018060405250810190611c3b919061322b565b611e94565b611d0e6040518060400160405280601c81526020017f4e657720617661696c61626c65207174792862757941667465722920000000008152508973ffffffffffffffffffffffffffffffffffffffff166318160ddd6040518163ffffffff1660e01b8152600401602060405180830381865afa158015611cc4573d6000803e3d6000fd5b505050506040513d601f19601f82011682018060405250810190611ce8919061322b565b670de0b6b3a7640000620f4240611cff9190612cde565b611d0991906132c4565b611e94565b60019850505050505050505092915050565b600160009054906101000a900473ffffffffffffffffffffffffffffffffffffffff1673ffffffffffffffffffffffffffffffffffffffff163373ffffffffffffffffffffffffffffffffffffffff1614611db0576040517f08c379a0000000000000000000000000000000000000000000000000000000008152600401611da790613546565b60405180910390fd5b6000600160009054906101000a900473ffffffffffffffffffffffffffffffffffffffff1673ffffffffffffffffffffffffffffffffffffffff16600254604051611dfa90613352565b60006040518083038185875af1925050503d8060008114611e37576040519150601f19603f3d011682016040523d82523d6000602084013e611e3c565b606091505b5050905080611e8857611e836040518060400160405280600f81526020017f5769746864726177206661696c65640000000000000000000000000000000000815250611f30565b611e91565b60006002819055505b50565b611f2c8282604051602401611eaa929190613566565b6040516020818303038152906040527fb60e72cc000000000000000000000000000000000000000000000000000000007bffffffffffffffffffffffffffffffffffffffffffffffffffffffff19166020820180517bffffffffffffffffffffffffffffffffffffffffffffffffffffffff83818316178352505050506123b5565b5050565b611fc681604051602401611f449190613596565b6040516020818303038152906040527f41304fac000000000000000000000000000000000000000000000000000000007bffffffffffffffffffffffffffffffffffffffffffffffffffffffff19166020820180517bffffffffffffffffffffffffffffffffffffffffffffffffffffffff83818316178352505050506123b5565b50565b600080739e5a52f57b3038f1b8eee45f28b3c1967e22799c9050600073edf6066a2b290c185783862c7f4776a2c8077ad1905060008273ffffffffffffffffffffffffffffffffffffffff1663c9c65396868473ffffffffffffffffffffffffffffffffffffffff1663ad5c46486040518163ffffffff1660e01b8152600401602060405180830381865afa158015612066573d6000803e3d6000fd5b505050506040513d601f19601f8201168201806040525081019061208a91906135cd565b6040518363ffffffff1660e01b81526004016120a79291906135fa565b6020604051808303816000875af11580156120c6573d6000803e3d6000fd5b505050506040513d601f19601f820116820180604052508101906120ea91906135cd565b9050809350505050919050565b61218f828260405160240161210d929190613623565b6040516020818303038152906040527f319af333000000000000000000000000000000000000000000000000000000007bffffffffffffffffffffffffffffffffffffffffffffffffffffffff19166020820180517bffffffffffffffffffffffffffffffffffffffffffffffffffffffff83818316178352505050506123b5565b5050565b6000808490508073ffffffffffffffffffffffffffffffffffffffff1663095ea7b373edf6066a2b290c185783862c7f4776a2c8077ad1866040518363ffffffff1660e01b81526004016121e89291906132f8565b6020604051808303816000875af1158015612207573d6000803e3d6000fd5b505050506040513d601f19601f8201168201806040525081019061222b9190613668565b50600073edf6066a2b290c185783862c7f4776a2c8077ad1905060008060008373ffffffffffffffffffffffffffffffffffffffff1663f305d719888b8b8c8c30426040518863ffffffff1660e01b815260040161228e96959493929190613695565b60606040518083038185885af11580156122ac573d6000803e3d6000fd5b50505050506040513d601f19601f820116820180604052508101906122d191906136f6565b92509250925080955050505050509392505050565b6000808390508073ffffffffffffffffffffffffffffffffffffffff1663a9059cbb6000856040518363ffffffff1660e01b81526004016123289291906132f8565b6020604051808303816000875af1158015612347573d6000803e3d6000fd5b505050506040513d601f19601f8201168201806040525081019061236b9190613668565b506123aa6040518060400160405280601381526020017f556e6920763220746f6b656e73206275726e7400000000000000000000000000815250611f30565b600191505092915050565b6123cc816123c46123cf6123f0565b63ffffffff16565b50565b60006a636f6e736f6c652e6c6f679050600080835160208501845afa505050565b612471819050919050565b611c788061377983390190565b6040518060e001604052806060815260200160608152602001606081526020016060815260200160008152602001600073ffffffffffffffffffffffffffffffffffffffff168152602001600073ffffffffffffffffffffffffffffffffffffffff1681525090565b612479613749565b565b6000604051905090565b600080fd5b600080fd5b600080fd5b600080fd5b6000601f19601f8301169050919050565b7f4e487b7100000000000000000000000000000000000000000000000000000000600052604160045260246000fd5b6124e282612499565b810181811067ffffffffffffffff82111715612501576125006124aa565b5b80604052505050565b600061251461247b565b905061252082826124d9565b919050565b600067ffffffffffffffff8211156125405761253f6124aa565b5b61254982612499565b9050602081019050919050565b82818337600083830152505050565b600061257861257384612525565b61250a565b90508281526020810184848401111561259457612593612494565b5b61259f848285612556565b509392505050565b600082601f8301126125bc576125bb61248f565b5b81356125cc848260208601612565565b91505092915050565b600080600080608085870312156125ef576125ee612485565b5b600085013567ffffffffffffffff81111561260d5761260c61248a565b5b612619878288016125a7565b945050602085013567ffffffffffffffff81111561263a5761263961248a565b5b612646878288016125a7565b935050604085013567ffffffffffffffff8111156126675761266661248a565b5b612673878288016125a7565b925050606085013567ffffffffffffffff8111156126945761269361248a565b5b6126a0878288016125a7565b91505092959194509250565b600073ffffffffffffffffffffffffffffffffffffffff82169050919050565b60006126d7826126ac565b9050919050565b6126e7816126cc565b82525050565b600060208201905061270260008301846126de565b92915050565b612711816126cc565b811461271c57600080fd5b50565b60008135905061272e81612708565b92915050565b60006020828403121561274a57612749612485565b5b60006127588482850161271f565b91505092915050565b600081519050919050565b600082825260208201905092915050565b60005b8381101561279b578082015181840152602081019050612780565b60008484015250505050565b60006127b282612761565b6127bc818561276c565b93506127cc81856020860161277d565b6127d581612499565b840191505092915050565b6000819050919050565b6127f3816127e0565b82525050565b600060e0820190508181036000830152612813818a6127a7565b9050818103602083015261282781896127a7565b9050818103604083015261283b81886127a7565b9050818103606083015261284f81876127a7565b905061285e60808301866127ea565b61286b60a08301856126de565b61287860c08301846126de565b98975050505050505050565b61288d816127e0565b811461289857600080fd5b50565b6000813590506128aa81612884565b92915050565b6000602082840312156128c6576128c5612485565b5b60006128d48482850161289b565b91505092915050565b60008115159050919050565b6128f2816128dd565b81146128fd57600080fd5b50565b60008135905061290f816128e9565b92915050565b60008060006060848603121561292e5761292d612485565b5b600061293c8682870161289b565b935050602061294d8682870161289b565b925050604061295e86828701612900565b9150509250925092565b600060408201905061297d60008301856127ea565b61298a60208301846127ea565b9392505050565b60006020820190506129a660008301846127ea565b92915050565b600081519050919050565b600082825260208201905092915050565b6000819050602082019050919050565b600082825260208201905092915050565b60006129f482612761565b6129fe81856129d8565b9350612a0e81856020860161277d565b612a1781612499565b840191505092915050565b612a2b816127e0565b82525050565b612a3a816126cc565b82525050565b600060e0830160008301518482036000860152612a5d82826129e9565b91505060208301518482036020860152612a7782826129e9565b91505060408301518482036040860152612a9182826129e9565b91505060608301518482036060860152612aab82826129e9565b9150506080830151612ac06080860182612a22565b5060a0830151612ad360a0860182612a31565b5060c0830151612ae660c0860182612a31565b508091505092915050565b6000612afd8383612a40565b905092915050565b6000602082019050919050565b6000612b1d826129ac565b612b2781856129b7565b935083602082028501612b39856129c8565b8060005b85811015612b755784840389528151612b568582612af1565b9450612b6183612b05565b925060208a01995050600181019050612b3d565b50829750879550505050505092915050565b60006020820190508181036000830152612ba18184612b12565b905092915050565b60008060408385031215612bc057612bbf612485565b5b6000612bce8582860161271f565b9250506020612bdf8582860161289b565b9150509250929050565b7f666565206e6f74207061696420666f72206d656d65746f6b656e20637265617460008201527f696f6e0000000000000000000000000000000000000000000000000000000000602082015250565b6000612c4560238361276c565b9150612c5082612be9565b604082019050919050565b60006020820190508181036000830152612c7481612c38565b9050919050565b7f4e487b7100000000000000000000000000000000000000000000000000000000600052601160045260246000fd5b6000612cb5826127e0565b9150612cc0836127e0565b9250828201905080821115612cd857612cd7612c7b565b5b92915050565b6000612ce9826127e0565b9150612cf4836127e0565b9250828202612d02816127e0565b91508282048414831517612d1957612d18612c7b565b5b5092915050565b7f4e487b7100000000000000000000000000000000000000000000000000000000600052601260045260246000fd5b6000612d5a826127e0565b9150612d65836127e0565b925082612d7557612d74612d20565b5b828204905092915050565b60006060820190508181036000830152612d9a81866127a7565b90508181036020830152612dae81856127a7565b9050612dbd60408301846127ea565b949350505050565b7f4e487b7100000000000000000000000000000000000000000000000000000000600052602260045260246000fd5b60006002820490506001821680612e0c57607f821691505b602082108103612e1f57612e1e612dc5565b5b50919050565b60008190508160005260206000209050919050565b60006020601f8301049050919050565b600082821b905092915050565b600060088302612e877fffffffffffffffffffffffffffffffffffffffffffffffffffffffffffffffff82612e4a565b612e918683612e4a565b95508019841693508086168417925050509392505050565b6000819050919050565b6000612ece612ec9612ec4846127e0565b612ea9565b6127e0565b9050919050565b6000819050919050565b612ee883612eb3565b612efc612ef482612ed5565b848454612e57565b825550505050565b600090565b612f11612f04565b612f1c818484612edf565b505050565b5b81811015612f4057612f35600082612f09565b600181019050612f22565b5050565b601f821115612f8557612f5681612e25565b612f5f84612e3a565b81016020851015612f6e578190505b612f82612f7a85612e3a565b830182612f21565b50505b505050565b600082821c905092915050565b6000612fa860001984600802612f8a565b1980831691505092915050565b6000612fc18383612f97565b9150826002028217905092915050565b612fda82612761565b67ffffffffffffffff811115612ff357612ff26124aa565b5b612ffd8254612df4565b613008828285612f44565b600060209050601f83116001811461303b5760008415613029578287015190505b6130338582612fb5565b86555061309b565b601f19841661304986612e25565b60005b828110156130715784890151825560018201915060208501945060208101905061304c565b8683101561308e578489015161308a601f891682612f97565b8355505b6001600288020188555050505b505050505050565b7f4e487b7100000000000000000000000000000000000000000000000000000000600052603260045260246000fd5b7f546f6b656e206973206e6f74206c697374656400000000000000000000000000600082015250565b600061310860138361276c565b9150613113826130d2565b602082019050919050565b60006020820190508181036000830152613137816130fb565b9050919050565b7f53656c6c20616d6f756e74206d757374206c61726765207468616e207a65726f600082015250565b600061317460208361276c565b915061317f8261313e565b602082019050919050565b600060208201905081810360008301526131a381613167565b9050919050565b7f46756e64696e672068617320616c7265616479206265656e2072616973656400600082015250565b60006131e0601f8361276c565b91506131eb826131aa565b602082019050919050565b6000602082019050818103600083015261320f816131d3565b9050919050565b60008151905061322581612884565b92915050565b60006020828403121561324157613240612485565b5b600061324f84828501613216565b91505092915050565b7f496e73756666696369656e7420746f6b656e2062616c616e6365000000000000600082015250565b600061328e601a8361276c565b915061329982613258565b602082019050919050565b600060208201905081810360008301526132bd81613281565b9050919050565b60006132cf826127e0565b91506132da836127e0565b92508282039050818111156132f2576132f1612c7b565b5b92915050565b600060408201905061330d60008301856126de565b61331a60208301846127ea565b9392505050565b600081905092915050565b50565b600061333c600083613321565b91506133478261332c565b600082019050919050565b600061335d8261332f565b9150819050919050565b7f507572636861736520616d6f756e74206d757374206c61726765207468616e2060008201527f7a65726f00000000000000000000000000000000000000000000000000000000602082015250565b60006133c360248361276c565b91506133ce82613367565b604082019050919050565b600060208201905081810360008301526133f2816133b6565b9050919050565b7f4e6f7420656e6f75676820617661696c61626c6520737570706c790000000000600082015250565b600061342f601b8361276c565b915061343a826133f9565b602082019050919050565b6000602082019050818103600083015261345e81613422565b9050919050565b7f496e636f72726563742076616c7565206f66204554482073656e740000000000600082015250565b600061349b601b8361276c565b91506134a682613465565b602082019050919050565b600060208201905081810360008301526134ca8161348e565b9050919050565b60006040820190506134e660008301856127ea565b6134f360208301846126de565b9392505050565b7f4e6f74206f776e65720000000000000000000000000000000000000000000000600082015250565b600061353060098361276c565b915061353b826134fa565b602082019050919050565b6000602082019050818103600083015261355f81613523565b9050919050565b6000604082019050818103600083015261358081856127a7565b905061358f60208301846127ea565b9392505050565b600060208201905081810360008301526135b081846127a7565b905092915050565b6000815190506135c781612708565b92915050565b6000602082840312156135e3576135e2612485565b5b60006135f1848285016135b8565b91505092915050565b600060408201905061360f60008301856126de565b61361c60208301846126de565b9392505050565b6000604082019050818103600083015261363d81856127a7565b905061364c60208301846126de565b9392505050565b600081519050613662816128e9565b92915050565b60006020828403121561367e5761367d612485565b5b600061368c84828501613653565b91505092915050565b600060c0820190506136aa60008301896126de565b6136b760208301886127ea565b6136c460408301876127ea565b6136d160608301866127ea565b6136de60808301856126de565b6136eb60a08301846127ea565b979650505050505050565b60008060006060848603121561370f5761370e612485565b5b600061371d86828701613216565b935050602061372e86828701613216565b925050604061373f86828701613216565b9150509250925092565b7f4e487b7100000000000000000000000000000000000000000000000000000000600052605160045260246000fdfe608060405234801561001057600080fd5b50604051611c78380380611c7883398181016040528101906100329190610507565b8282816003908161004391906107a9565b50806004908161005391906107a9565b50505061006633826100af60201b60201c565b33600560006101000a81548173ffffffffffffffffffffffffffffffffffffffff021916908373ffffffffffffffffffffffffffffffffffffffff16021790555050505061099b565b600073ffffffffffffffffffffffffffffffffffffffff168273ffffffffffffffffffffffffffffffffffffffff16036101215760006040517fec442f0500000000000000000000000000000000000000000000000000000000815260040161011891906108bc565b60405180910390fd5b6101336000838361013760201b60201c565b5050565b600073ffffffffffffffffffffffffffffffffffffffff168373ffffffffffffffffffffffffffffffffffffffff160361018957806002600082825461017d9190610906565b9250508190555061025c565b60008060008573ffffffffffffffffffffffffffffffffffffffff1673ffffffffffffffffffffffffffffffffffffffff16815260200190815260200160002054905081811015610215578381836040517fe450d38c00000000000000000000000000000000000000000000000000000000815260040161020c93929190610949565b60405180910390fd5b8181036000808673ffffffffffffffffffffffffffffffffffffffff1673ffffffffffffffffffffffffffffffffffffffff16815260200190815260200160002081905550505b600073ffffffffffffffffffffffffffffffffffffffff168273ffffffffffffffffffffffffffffffffffffffff16036102a557806002600082825403925050819055506102f2565b806000808473ffffffffffffffffffffffffffffffffffffffff1673ffffffffffffffffffffffffffffffffffffffff168152602001908152602001600020600082825401925050819055505b8173ffffffffffffffffffffffffffffffffffffffff168373ffffffffffffffffffffffffffffffffffffffff167fddf252ad1be2c89b69c2b068fc378daa952ba7f163c4a11628f55a4df523b3ef8360405161034f9190610980565b60405180910390a3505050565b6000604051905090565b600080fd5b600080fd5b600080fd5b600080fd5b6000601f19601f8301169050919050565b7f4e487b7100000000000000000000000000000000000000000000000000000000600052604160045260246000fd5b6103c38261037a565b810181811067ffffffffffffffff821117156103e2576103e161038b565b5b80604052505050565b60006103f561035c565b905061040182826103ba565b919050565b600067ffffffffffffffff8211156104215761042061038b565b5b61042a8261037a565b9050602081019050919050565b60005b8381101561045557808201518184015260208101905061043a565b60008484015250505050565b600061047461046f84610406565b6103eb565b9050828152602081018484840111156104905761048f610375565b5b61049b848285610437565b509392505050565b600082601f8301126104b8576104b7610370565b5b81516104c8848260208601610461565b91505092915050565b6000819050919050565b6104e4816104d1565b81146104ef57600080fd5b50565b600081519050610501816104db565b92915050565b6000806000606084860312156105205761051f610366565b5b600084015167ffffffffffffffff81111561053e5761053d61036b565b5b61054a868287016104a3565b935050602084015167ffffffffffffffff81111561056b5761056a61036b565b5b610577868287016104a3565b9250506040610588868287016104f2565b9150509250925092565b600081519050919050565b7f4e487b7100000000000000000000000000000000000000000000000000000000600052602260045260246000fd5b600060028204905060018216806105e457607f821691505b6020821081036105f7576105f661059d565b5b50919050565b60008190508160005260206000209050919050565b60006020601f8301049050919050565b600082821b905092915050565b60006008830261065f7fffffffffffffffffffffffffffffffffffffffffffffffffffffffffffffffff82610622565b6106698683610622565b95508019841693508086168417925050509392505050565b6000819050919050565b60006106a66106a161069c846104d1565b610681565b6104d1565b9050919050565b6000819050919050565b6106c08361068b565b6106d46106cc826106ad565b84845461062f565b825550505050565b600090565b6106e96106dc565b6106f48184846106b7565b505050565b5b818110156107185761070d6000826106e1565b6001810190506106fa565b5050565b601f82111561075d5761072e816105fd565b61073784610612565b81016020851015610746578190505b61075a61075285610612565b8301826106f9565b50505b505050565b600082821c905092915050565b600061078060001984600802610762565b1980831691505092915050565b6000610799838361076f565b9150826002028217905092915050565b6107b282610592565b67ffffffffffffffff8111156107cb576107ca61038b565b5b6107d582546105cc565b6107e082828561071c565b600060209050601f8311600181146108135760008415610801578287015190505b61080b858261078d565b865550610873565b601f198416610821866105fd565b60005b8281101561084957848901518255600182019150602085019450602081019050610824565b868310156108665784890151610862601f89168261076f565b8355505b6001600288020188555050505b505050505050565b600073ffffffffffffffffffffffffffffffffffffffff82169050919050565b60006108a68261087b565b9050919050565b6108b68161089b565b82525050565b60006020820190506108d160008301846108ad565b92915050565b7f4e487b7100000000000000000000000000000000000000000000000000000000600052601160045260246000fd5b6000610911826104d1565b915061091c836104d1565b9250828201905080821115610934576109336108d7565b5b92915050565b610943816104d1565b82525050565b600060608201905061095e60008301866108ad565b61096b602083018561093a565b610978604083018461093a565b949350505050565b6000602082019050610995600083018461093a565b92915050565b6112ce806109aa6000396000f3fe608060405234801561001057600080fd5b50600436106100b45760003560e01c80638da5cb5b116100715780638da5cb5b146101a357806394bf804d146101c157806395d89b41146101f15780639dc29fac1461020f578063a9059cbb1461023f578063dd62ed3e1461026f576100b4565b806306fdde03146100b9578063095ea7b3146100d757806318160ddd1461010757806323b872dd14610125578063313ce5671461015557806370a0823114610173575b600080fd5b6100c161029f565b6040516100ce9190610dbe565b60405180910390f35b6100f160048036038101906100ec9190610e79565b610331565b6040516100fe9190610ed4565b60405180910390f35b61010f610354565b60405161011c9190610efe565b60405180910390f35b61013f600480360381019061013a9190610f19565b61035e565b60405161014c9190610ed4565b60405180910390f35b61015d61038d565b60405161016a9190610f88565b60405180910390f35b61018d60048036038101906101889190610fa3565b610396565b60405161019a9190610efe565b60405180910390f35b6101ab6103de565b6040516101b89190610fdf565b60405180910390f35b6101db60048036038101906101d69190610ffa565b610404565b6040516101e89190610efe565b60405180910390f35b6101f96104aa565b6040516102069190610dbe565b60405180910390f35b61022960048036038101906102249190610e79565b61053c565b6040516102369190610efe565b60405180910390f35b61025960048036038101906102549190610e79565b6105e2565b6040516102669190610ed4565b60405180910390f35b6102896004803603810190610284919061103a565b610605565b6040516102969190610efe565b60405180910390f35b6060600380546102ae906110a9565b80601f01602080910402602001604051908101604052809291908181526020018280546102da906110a9565b80156103275780601f106102fc57610100808354040283529160200191610327565b820191906000526020600020905b81548152906001019060200180831161030a57829003601f168201915b5050505050905090565b60008061033c61068c565b9050610349818585610694565b600191505092915050565b6000600254905090565b60008061036961068c565b90506103768582856106a6565b61038185858561073a565b60019150509392505050565b60006012905090565b60008060008373ffffffffffffffffffffffffffffffffffffffff1673ffffffffffffffffffffffffffffffffffffffff168152602001908152602001600020549050919050565b600560009054906101000a900473ffffffffffffffffffffffffffffffffffffffff1681565b6000600560009054906101000a900473ffffffffffffffffffffffffffffffffffffffff1673ffffffffffffffffffffffffffffffffffffffff163373ffffffffffffffffffffffffffffffffffffffff1614610496576040517f08c379a000000000000000000000000000000000000000000000000000000000815260040161048d9061114c565b60405180910390fd5b6104a0828461082e565b6001905092915050565b6060600480546104b9906110a9565b80601f01602080910402602001604051908101604052809291908181526020018280546104e5906110a9565b80156105325780601f1061050757610100808354040283529160200191610532565b820191906000526020600020905b81548152906001019060200180831161051557829003601f168201915b5050505050905090565b6000600560009054906101000a900473ffffffffffffffffffffffffffffffffffffffff1673ffffffffffffffffffffffffffffffffffffffff163373ffffffffffffffffffffffffffffffffffffffff16146105ce576040517f08c379a00000000000000000000000000000000000000000000000000000000081526004016105c5906111de565b60405180910390fd5b6105d883836108b0565b6001905092915050565b6000806105ed61068c565b90506105fa81858561073a565b600191505092915050565b6000600160008473ffffffffffffffffffffffffffffffffffffffff1673ffffffffffffffffffffffffffffffffffffffff16815260200190815260200160002060008373ffffffffffffffffffffffffffffffffffffffff1673ffffffffffffffffffffffffffffffffffffffff16815260200190815260200160002054905092915050565b600033905090565b6106a18383836001610932565b505050565b60006106b28484610605565b90507fffffffffffffffffffffffffffffffffffffffffffffffffffffffffffffffff81146107345781811015610724578281836040517ffb8f41b200000000000000000000000000000000000000000000000000000000815260040161071b939291906111fe565b60405180910390fd5b61073384848484036000610932565b5b50505050565b600073ffffffffffffffffffffffffffffffffffffffff168373ffffffffffffffffffffffffffffffffffffffff16036107ac5760006040517f96c6fd1e0000000000000000000000000000000000000000000000000000000081526004016107a39190610fdf565b60405180910390fd5b600073ffffffffffffffffffffffffffffffffffffffff168273ffffffffffffffffffffffffffffffffffffffff160361081e5760006040517fec442f050000000000000000000000000000000000000000000000000000000081526004016108159190610fdf565b60405180910390fd5b610829838383610b09565b505050565b600073ffffffffffffffffffffffffffffffffffffffff168273ffffffffffffffffffffffffffffffffffffffff16036108a05760006040517fec442f050000000000000000000000000000000000000000000000000000000081526004016108979190610fdf565b60405180910390fd5b6108ac60008383610b09565b5050565b600073ffffffffffffffffffffffffffffffffffffffff168273ffffffffffffffffffffffffffffffffffffffff16036109225760006040517f96c6fd1e0000000000000000000000000000000000000000000000000000000081526004016109199190610fdf565b60405180910390fd5b61092e82600083610b09565b5050565b600073ffffffffffffffffffffffffffffffffffffffff168473ffffffffffffffffffffffffffffffffffffffff16036109a45760006040517fe602df0500000000000000000000000000000000000000000000000000000000815260040161099b9190610fdf565b60405180910390fd5b600073ffffffffffffffffffffffffffffffffffffffff168373ffffffffffffffffffffffffffffffffffffffff1603610a165760006040517f94280d62000000000000000000000000000000000000000000000000000000008152600401610a0d9190610fdf565b60405180910390fd5b81600160008673ffffffffffffffffffffffffffffffffffffffff1673ffffffffffffffffffffffffffffffffffffffff16815260200190815260200160002060008573ffffffffffffffffffffffffffffffffffffffff1673ffffffffffffffffffffffffffffffffffffffff168152602001908152602001600020819055508015610b03578273ffffffffffffffffffffffffffffffffffffffff168473ffffffffffffffffffffffffffffffffffffffff167f8c5be1e5ebec7d5bd14f71427d1e84f3dd0314c0f7b2291e5b200ac8c7c3b92584604051610afa9190610efe565b60405180910390a35b50505050565b600073ffffffffffffffffffffffffffffffffffffffff168373ffffffffffffffffffffffffffffffffffffffff1603610b5b578060026000828254610b4f9190611264565b92505081905550610c2e565b60008060008573ffffffffffffffffffffffffffffffffffffffff1673ffffffffffffffffffffffffffffffffffffffff16815260200190815260200160002054905081811015610be7578381836040517fe450d38c000000000000000000000000000000000000000000000000000000008152600401610bde939291906111fe565b60405180910390fd5b8181036000808673ffffffffffffffffffffffffffffffffffffffff1673ffffffffffffffffffffffffffffffffffffffff16815260200190815260200160002081905550505b600073ffffffffffffffffffffffffffffffffffffffff168273ffffffffffffffffffffffffffffffffffffffff1603610c775780600260008282540392505081905550610cc4565b806000808473ffffffffffffffffffffffffffffffffffffffff1673ffffffffffffffffffffffffffffffffffffffff168152602001908152602001600020600082825401925050819055505b8173ffffffffffffffffffffffffffffffffffffffff168373ffffffffffffffffffffffffffffffffffffffff167fddf252ad1be2c89b69c2b068fc378daa952ba7f163c4a11628f55a4df523b3ef83604051610d219190610efe565b60405180910390a3505050565b600081519050919050565b600082825260208201905092915050565b60005b83811015610d68578082015181840152602081019050610d4d565b60008484015250505050565b6000601f19601f8301169050919050565b6000610d9082610d2e565b610d9a8185610d39565b9350610daa818560208601610d4a565b610db381610d74565b840191505092915050565b60006020820190508181036000830152610dd88184610d85565b905092915050565b600080fd5b600073ffffffffffffffffffffffffffffffffffffffff82169050919050565b6000610e1082610de5565b9050919050565b610e2081610e05565b8114610e2b57600080fd5b50565b600081359050610e3d81610e17565b92915050565b6000819050919050565b610e5681610e43565b8114610e6157600080fd5b50565b600081359050610e7381610e4d565b92915050565b60008060408385031215610e9057610e8f610de0565b5b6000610e9e85828601610e2e565b9250506020610eaf85828601610e64565b9150509250929050565b60008115159050919050565b610ece81610eb9565b82525050565b6000602082019050610ee96000830184610ec5565b92915050565b610ef881610e43565b82525050565b6000602082019050610f136000830184610eef565b92915050565b600080600060608486031215610f3257610f31610de0565b5b6000610f4086828701610e2e565b9350506020610f5186828701610e2e565b9250506040610f6286828701610e64565b9150509250925092565b600060ff82169050919050565b610f8281610f6c565b82525050565b6000602082019050610f9d6000830184610f79565b92915050565b600060208284031215610fb957610fb8610de0565b5b6000610fc784828501610e2e565b91505092915050565b610fd981610e05565b82525050565b6000602082019050610ff46000830184610fd0565b92915050565b6000806040838503121561101157611010610de0565b5b600061101f85828601610e64565b925050602061103085828601610e2e565b9150509250929050565b6000806040838503121561105157611050610de0565b5b600061105f85828601610e2e565b925050602061107085828601610e2e565b9150509250929050565b7f4e487b7100000000000000000000000000000000000000000000000000000000600052602260045260246000fd5b600060028204905060018216806110c157607f821691505b6020821081036110d4576110d361107a565b5b50919050565b7f4d696e742063616e206f6e6c792062652063616c6c656420627920746865206f60008201527f776e657200000000000000000000000000000000000000000000000000000000602082015250565b6000611136602483610d39565b9150611141826110da565b604082019050919050565b6000602082019050818103600083015261116581611129565b9050919050565b7f4275726e2063616e206f6e6c792062652063616c6c656420627920746865206f60008201527f776e657200000000000000000000000000000000000000000000000000000000602082015250565b60006111c8602483610d39565b91506111d38261116c565b604082019050919050565b600060208201905081810360008301526111f7816111bb565b9050919050565b60006060820190506112136000830186610fd0565b6112206020830185610eef565b61122d6040830184610eef565b949350505050565b7f4e487b7100000000000000000000000000000000000000000000000000000000600052601160045260246000fd5b600061126f82610e43565b915061127a83610e43565b925082820190508082111561129257611291611235565b5b9291505056fea26469706673582212201dfd752de929a2de0984260768173d401cf168bc0088c0c4c55e94572fb52a7964736f6c634300081b00334d617820737570706c79206f6620746f6b656e206973286275794265666f7265292051747920617661696c61626c6520666f72207075726368617365286275794265666f7265292043757272656e7420737570706c79206f6620746f6b656e206973286275794265666f7265292045544820726571756972656420666f722070757263686173696e67206d656d6520746f6b656e7320697320557365722062616c616e6365206f662074686520746f6b656e732069732862757941667465722920557365722062616c616e6365206f662074686520746f6b656e732069732873616c654166746572292045544820707269636520666f722073616c65206d656d6520746f6b656e7320697320a2646970667358221220e71d82952a9369f08d14d4088bd90ed4aacee1295d2c74e4aa4b352dcf11358064736f6c634300081b0033",
  "linkReferences": {},
  "deployedLinkReferences": {}
}